S0150000736B657463685F6665623033612E737265633D
S11300000C94E0020C9408030C9408030C94080369
S11300100C9408030C9408030C9408030C94080330
S11300200C9408030C9408030C9408030C94121504
S11300300C9408030C9408030C9408030C94080310
S11300400C9488170C9408030C9485160C94B7161A
S11300500C9408030C9408030C9408030C940803F0
S11300600C94E4110C94080300000000003E5B4F64
S11300705B3E3E6B4F6B3E1C3E7C3E1C183C7E3C04
S1130080181C577D571C1C5E7F5E1C00183C180012
S1130090FFE7C3E7FF0018241800FFE7DBE7FF30A2
S11300A0483A060E2629792926407F050507407F10
S11300B005253F5A3CE73C5A7F3E1C1C08081C1C83
S11300C03E7F14227F22145F5F005F5F06097F0179
S11300D07F006689956A606060606094A2FFA29464
S11300E008047E040810207E201008082A1C080832
S11300F01C2A08081E101010100C1E0C1E0C303880
S11301003E3830060E3E0E06000000000000005F80
S113011000000007000700147F147F14242A7F2A9C
S1130120122313086462364956205000080703005E
S1130130001C2241000041221C002A1C7F1C2A08AA
S1130140083E08080080703000080808080800000D
S113015060600020100804023E5149453E00427F81
S1130160400072494949462141494D331814127FD0
S11301701027454545393C4A494931412111090770
S11301803649494936464949291E000014000000F1
S113019040340000000814224114141414140041C3
S11301A022140802015909063E415D594E7C121180
S11301B0127C7F494949363E414141227F414141B8
S11301C03E7F494949417F090909013E4141517333
S11301D07F0808087F00417F41002040413F017FA4
S11301E0081422417F404040407F021C027F7F046C
S11301F008107F3E4141413E7F090909063E4151B5
S1130200215E7F09192946264949493203017F01A4
S1130210033F4040403F1F2040201F3F4038403FA5
S1130220631408146303047804036159494D4300BB
S11302307F4141410204081020004141417F0402F2
S11302400102044040404040000307080020545489
S113025078407F2844443838444444283844442867
S11302607F385454541800087E090218A4A49C78BA
S11302707F0804047800447D40002040403D007F16
S11302801028440000417F40007C047804787C08F6
S11302900404783844444438FC18242418182424CA
S11302A018FC7C08040408485454542404043F44AF
S11302B0243C4040207C1C2040201C3C4030403CDE
S11302C044281028444C9090907C4464544C44003E
S11302D008364100000077000000413608000201A2
S11302E00204023C2623263C1EA1A161123A40408E
S11302F0207A38545455592155557941225454780B
S113030042215554784020545579400C1E527212A3
S1130310395555555939545454593955545458002C
S113032000457C410002457D420001457C407D1230
S113033011127DF0282528F07C5455450020545492
S11303407C547C0A097F4932494949323A4444443D
S11303503A324A4848303A4141217A3A4240207878
S1130360009DA0A07D3D4242423D3D4040403D3C79
S113037024FF2424487E4943662B2FFC2F2BFF099E
S113038029F620C0887E0903205454794100004492
S11303907D413048484A32384040227A007A0A0A7D
S11303A0727D0D19317D2629292F282629292926F0
S11303B030484D4020380808080808080808382F35
S11303C010C8ACBA2F102834FA00007B00000814BF
S11303D02A142222142A14085500550055AA55AA95
S11303E055AAFF55FF55FF000000FF00101010FF35
S11303F000141414FF001010FF00FF1010F010F090
S1130400141414FC001414F700FF0000FF00FF1480
S113041014F404FC141417101F10101F101F1414CC
S1130420141F00101010F0000000001F1010101016
S11304301F10101010F010000000FF10101010100A
S113044010101010FF10000000FF140000FF00FF48
S113045000001F10170000FC04F4141417101714E4
S113046014F404F40000FF00F71414141414141406
S1130470F700F7141414171410101F101F14141479
S1130480F4141010F010F000001F101F0000001FE3
S113049014000000FC140000F010F01010FF10FF16
S11304A0141414FF141010101F00000000F010FFAB
S11304B0FFFFFFFFF0F0F0F0F0FFFFFF000000008F
S11304C000FFFF0F0F0F0F0F3844443844FC4A4A13
S11304D04A347E02020606027E027E0263554941C8
S11304E0633844443C04407E201E2006027E0202FF
S11304F099A5E7A5991C2A492A1C4C7201724C3013
S11305004A4D4D303048784830BC625A463D3E49E9
S11305104949007E0101017E2A2A2A2A2A44445F8D
S1130520444440514A444040444A51400000FF0181
S113053003E080FF000008086B6B0836123624368F
S1130540060F090F060000181800000010100030F4
S113055040FF0101001F01011E00191D1712003C7C
S11305603C3C3C00000000000000000800020100C8
S1130570000304070000000000000000010204085A
S113058010204080010204081020010204081020F9
S11305900404040404040404020202020202030325
S11305A00303030300000000250028002B000000C3
S11305B00000240027002A001205D813E71642057C
S11305C011241FBECFEFD8E0DEBFCDBF15E0A0E001
S11305D0B1E0E2EDFBE302C005900D92AC3EB10741
S11305E0D9F727E0ACEEB5E001C01D92A03CB207FC
S11305F0E1F712E0CFEDD2E004C02197FE010E94A2
S1130600741BCC3DD107C9F70E9415170C94DC1D4F
S11306100C940000CF93DF93EC01FC011192CF0105
S11306206FED75E00E9472196FED75E0CE010796CB
S11306300E9472196FED75E0CE010D960E94721939
S11306406FED75E0CE0143960E9472196FED75E06F
S1130650CE0149960E9472196FED75E0CE014F9656
S11306600E94721981E08DA3DF91CF910895CF93F9
S1130670DF93EC016F5F7F4F0E94DB19CE01DF91A6
S1130680CF9108953F924F925F926F927F928F9293
S11306909F92AF92BF92CF92DF92EF92FF920F930D
S11306A01F93CF93DF9300D000D000D0CDB7DEB737
S11306B07C018C01015E1F4F2C018DE0480E511C02
S11306C03701E3E16E0E711C5701F9E1AF0EB11C65
S11306D067018FEFC81AD80A4701E7E08E0E911C14
S11306E086E197E00E944B15892B09F41AC186E133
S11306F097E00E9465158A3009F00EC1C8010E9476
S11307000A1B62E275E0CE0101960E947219BE01D5
S11307106F5F7F4FC8010E94B51A382ECE01019633
S11307200E940419332029F06FED75E0C6010E9480
S1130730F0196AE275E0CE0101960E947219BE01B9
S11307406F5F7F4FC8010E94B51A382ECE01019603
S11307500E9404193320E1F0F70123A134A144E0FD
S113076050E0B801CE0101960E94C41ABE016F5F29
S11307707F4FC4010E94E419CE0101960E9404191E
S1130780B401C6010E94351A6AE0C6010E943C1AEF
S11307906FE275E0CE0101960E947219BE016F5F8F
S11307A07F4FC8010E94B51A382ECE0101960E94CF
S11307B00419332029F06FED75E0C6010E94F01989
S11307C06BE375E0CE0101960E947219BE016F5F62
S11307D07F4FC8010E94B51A382ECE0101960E949F
S11307E004193320A1F0F70123A134A145E050E01E
S11307F0B801CE0101960E94C41ABE016F5F7F4FFB
S1130800C2010E94E419CE0101960E94041961E418
S113081075E0CE0101960E947219BE016F5F7F4F91
S1130820C8010E94B51A382ECE0101960E940419FF
S11308303320A1F0F70123A134A144E050E0B80132
S1130840CE0101960E94C41ABE016F5F7F4FC3019F
S11308500E94E419CE0101960E94041966E475E031
S1130860CE0101960E947219BE016F5F7F4FC801CD
S11308700E94B51A382ECE0101960E940419332025
S1130880A1F0F70123A134A144E050E0B801CE0166
S113089001960E94C41ABE016F5F7F4FC5010E947A
S11308A0E419CE0101960E9404196BE475E0CE01AF
S11308B001960E947219BE016F5F7F4FC8010E94AA
S11308C0B51A382ECE0101960E9404193320F1F096
S11308D0B201CE0101960E94DB196AE0CE010196B5
S11308E00E94621AB3010E944F1A6AE00E94621ABF
S11308F0B5010E944F1A6AE00E94621ABC01C60147
S11309000E94C419CE0101960E9404196FED75E08E
S1130910C8010E94F019E4CE682FC8010E943C1A55
S1130920DFCE26960FB6F894DEBF0FBECDBFDF91A3
S1130930CF911F910F91FF90EF90DF90CF90BF90D8
S1130940AF909F908F907F906F905F904F903F906B
S11309500895CF93DF9300D000D000D0CDB7DEB799
S113096045E050E060E070E084E296E00E94310BE4
S113097084E296E00E94D20E6EEF75E0CE010196FD
S11309800E943703BE016F5F7F4F84E296E00E94AE
S11309907617CE0101960E94041984E296E00E9423
S11309A0811026960FB6F894DEBF0FBECDBFDF913F
S11309B0CF91089526E040E855E260E070E086E1DA
S11309C097E00E94201669EA74E08CEE95E00E949C
S11309D00B1521E04CE362E084E296E00E944C0FA8
S11309E084E296E00E94811064E670E080E090E08A
S11309F00E94F71740E050E060E070E084E296E087
S1130A000E94310B61E084E296E00E94370B61E0C2
S1130A1070E084E296E00C943D0B08958EEF95E02F
S1130A200C944203CF93DF9300D000D000D0CDB715
S1130A30DEB76FEF84E296E00E94B90E8EEF95E088
S1130A400E940A0388EF95E00E9439156EE475E070
S1130A50CE0101960E94721944EF51E0BE016F5F0E
S1130A607F4F8CEE95E00E94C614CE0101960E9441
S1130A70041926960FB6F894DEBF0FBECDBFDF91E2
S1130A80CF9108958CEE95E00E94101588EF95E0C3
S1130A900E9447158DE196E00E94041987E196E0D3
S1130AA00E94041981E196E00E9404198BE096E00B
S1130AB00E94041985E096E00E9404198FEF95E0E6
S1130AC00C94041980E090E0089508952F923F92C9
S1130AD04F925F926F927F928F929F92AF92BF924A
S1130AE0CF92DF92EF92FF920F931F93CF93DF93F6
S1130AF000D01F92CDB7DEB74C017B836A836A01B5
S1130B00590117019801241B350B37FF03C0319598
S1130B1021953109C5014A815B81841B950B97FF9F
S1130B2003C091958195910951E0598382179307E8
S1130B3014F019820BC09A2D8B2D5801092F182FF0
S1130B409A818B81DB82CA82C92ED82E8A819B81AD
S1130B50A816B9065CF49C2D8D2D6801092F182F59
S1130B609A818B81BB82AA82A92EB82E2501AA81E3
S1130B70BB814A1A5B0A38016C187D0877FE03C0F2
S1130B80719461947108720157FE03C0BFEFEB1AB0
S1130B90FB0AF594E794C016D1061CF00FEF1FEF83
S1130BA01FC001E010E01CC0D401ED91FC91B9819B
S1130BB00484F585E02D9101BB23C1F04A815B815A
S1130BC0B601C4010995E618F708F7FE04C0C00E83
S1130BD0D11EE40CF51CEA81FB813196FB83EA8388
S1130BE04A815B81A416B506FCF604C0A6016A819D
S1130BF07B81E7CF0F900F900F90DF91CF911F91E2
S1130C000F91FF90EF90DF90CF90BF90AF909F90A7
S1130C108F907F906F905F904F903F902F900895AA
S1130C200895DC01ED91FC910084F185E02D099497
S1130C300F931F93DC01ED91FC91048CF58DE02D55
S1130C4009951F910F9108950F931F93DC01ED9166
S1130C50FC91068CF78DE02D09951F910F91089555
S1130C60EF92FF920F931F93DC01ED91FC9100A092
S1130C70F1A1E02D09951F910F91FF90EF90089538
S1130C800895AF92BF92CF92DF92EF92FF920F93AB
S1130C901F93CF93DF9300D000D0CDB7DEB75C01B4
S1130CA06901DC01ED91FC910284F385E02D4B8315
S1130CB05C8369837A830995D501ED91FC914B811D
S1130CC05C81C40ED51EB1E0CB1AD1080488F58925
S1130CD0E02D7801860169817A819B01C50109951E
S1130CE0D501ED91FC910688F789E02DC5010F909F
S1130CF00F900F900F90DF91CF911F910F91FF9064
S1130D00EF90DF90CF90BF90AF900994AF92BF92D5
S1130D10CF92DF92EF92FF920F931F93CF93DF93C3
S1130D2000D000D0CDB7DEB75C016901DC01ED91E4
S1130D30FC910284F385E02D4B835C8369837A8381
S1130D400995D501ED91FC9169817A819B012C0D66
S1130D503D1D215031090488F589E02D78014B812E
S1130D605C818A01C5010995D501ED91FC91068844
S1130D70F789E02DC5010F900F900F900F90DF9130
S1130D80CF911F910F91FF90EF90DF90CF90BF9084
S1130D90AF9009944F925F926F927F928F929F923D
S1130DA0AF92BF92CF92DF92EF92FF920F931F9375
S1130DB0CF93DF9300D0CDB7DEB76C015A01390170
S1130DC04801DC01ED91FC910284F385E02D6983F7
S1130DD07A8309956981462E7A81572E640C751C95
S1130DE0D601ED91FC91461457046CF40088F18906
S1130DF0E02D87019401A501B201C6010995BFEF59
S1130E004B1A5B0AEDCF0688F789E02DC6010F90D7
S1130E100F90DF91CF911F910F91FF90EF90DF9092
S1130E20CF90BF90AF909F908F907F906F905F9086
S1130E304F900994EF92FF920F931F93DC01ED9171
S1130E40FC9111971A960D911C911B9718962D9150
S1130E503C91199700A0F1A1E02D7B0140E050E006
S1130E6060E070E009951F910F91FF90EF90089555
S1130E70CF92DF92EF92FF920F931F93CF93DF9362
S1130E8000D000D000D0CDB7DEB76C01DC01ED910D
S1130E90FC916217730789F4041715072CF4942F37
S1130EA0852FA801092F182F041B150B98012F5FFC
S1130EB03F4F048CF58DE02D12C04017510709F502
S1130EC0261737072CF4962F872FB901292F382F8F
S1130ED0261B370B2F5F3F4F068CF78DE02D8701C4
S1130EE0C601099526960FB6F894DEBF0FBECDBF96
S1130EF0DF91CF911F910F91FF90EF90DF90CF90F2
S1130F0008950284F385E02D2D833E834B835C8317
S1130F1069837A830995D601ED91FC910488F5895A
S1130F20E02D2D813E814B815C8169817A81C601EE
S1130F300995D601ED91FC910688F789E02DC6014B
S1130F4026960FB6F894DEBF0FBECDBFDF91CF91CA
S1130F501F910F91FF90EF90DF90CF9009946F92C3
S1130F607F928F929F92AF92BF92CF92DF92EF9235
S1130F70FF920F931F93CF93DF93EC014B015A0120
S1130F8069013801E881F9810284F385E02D09952E
S1130F90E881F9810288F389E02D87019601A50192
S1130FA0B401CE010995E881F981A501460D571DCB
S1130FB0415051090288F389E02D9601B401CE0114
S1130FC00995E881F9810088F189E02D9301A50153
S1130FD0B401CE010995E881F981C80CD91CB60188
S1130FE0615071090088F189E02D9301A501CE01BA
S1130FF00995E881F9810688F789E02DCE01DF9112
S1131000CF911F910F91FF90EF90DF90CF90BF9001
S1131010AF909F908F907F906F9009940895FC01FA
S11310206370658B8481958126813781613039F0C5
S1131030633029F091878087338722870895318729
S11310402087938782870895FC011382128286E5A4
S113105095E0918380837583648357834683718786
S1131060608753874287158A1586148617861686E5
S113107081E0848B2FEF3FEF338B228B318B208BDE
S1131080868B178A118E108E08952F923F924F925D
S11310905F926F927F928F929F92AF92BF92CF9204
S11310A0DF92EF92FF920F931F93CF93DF93CDB70D
S11310B0DEB76C970FB6F894DEBF0FBECDBF9C8F22
S11310C08B8F5B011A011F830E833701C982DC01F8
S11310D058964D915C9159974115510509F0E5C019
S11310E018968D919C911997681779070CF0CAC1CD
S11310F01A968D919C911B97281639060CF0C2C143
S11311008C2C912CFB0136E0C39EE00DF11D1124C3
S1131110FB87EA871E161F060CF0B4C1C40133E036
S1131120880F991F3A95E1F79D878C87820D931D4F
S1131130181619060CF0A6C157968C91811103C09C
S1131140203B08F02F5FAB8DBC8DED91FC91119786
S11311500284F385E02DCD012A8F09952A8DB5E00F
S11311602B9F90011124F5013596FF87EE87250109
S1131170BB82AA82A9014A195B09598B488BC10118
S113118008969B8B8A8BE889F989E40DF51DE8594B
S1131190FF4F949198873D822C826101A885A0FF1E
S11311A013C0AB8DBC8DED91FC91B981B13031F49C
S11311B00484F585E02D2E813F8116C00684F785D1
S11311C0E02DEE80FF801AC0EE81FF816E167F064F
S11311D0F1F0AB8DBC8DED91FC91B981B13051F43E
S11311E00484F585E02D9301A601B2018B8D9C8DBD
S11311F009950DC00684F785E02D730184019401DF
S11312004C815D816A817B818B8D9C8D0995E885FC
S1131210E695E8872C813D81280D391D3D832C837B
S11312203FEFC31AD30A4A895B89C416D50609F06D
S1131230B5CF8A819B81880D991D9B838A839FEFFB
S1131240491A590AAE85BF854A165B0609F09BCF39
S1131250EE81FF816E167F0609F4F2C0EB8DFC8DE2
S1131260A081B181F981F13079F4B5016B5F7F4FD1
S11312705096ED91FC915197830128E030E0A10153
S11312808B8D9C8D0995DCC06A857B8568197909ED
S11312901E96ED91FC911F9773010C851D85940199
S11312A0A1018B8D9C8D0995CBC0FA013496949144
S11312B0329765917491291BCB01B7E02B9F800D68
S11312C0911D1124FA01259134913B8B2A8BFC0149
S11312D0459154915B834A83FC013296C4903196C4
S11312E054915C87329614913196D49089818230DE
S11312F058F0612E012E000C7708AD2D0D2C000C3A
S1131300BB0BB987A88704C019861886612C712C79
S1131310AB8DBC8DED91FC9111970284F385E02D8A
S1131320CD010995B9818B2E912C689CC001699CD3
S1131330900D789C900D1124FC01EA0DFB1DF98B96
S1131340E88B1C82712C612CE12F110FFF0B95018E
S11313502E0F3F1F3B872A87AC0CB11CA5014E0FF3
S11313605F1F5F8B4E8BC1018D0D911DD7FC9A952C
S1131370998F888F4C85641608F062C0862D90E0A2
S113138048855985480F591F489D9001499D300D46
S1131390589D300D1124D901A20DB31DBF87AE870E
S11313A0AA84BB8448885988DC80BA85DB1AE88D16
S11313B0F98DE80FF91FFD8BEC8B8D2D8A0D2E898D
S11313C03F89A216B306B9F1877061F48A819B81C3
S11313D00196EA89FB89AA81BB81EA0FFB1F7490FD
S11313E09B838A8377FE20C0AB8DBC8DED91FC91ED
S11313F0B981B13061F40484F585E02D2E813F81FB
S11314004C895D89B5018B8D9C8D09950DC0068431
S1131410F785E02DEE80FF80840194014E855F8581
S1131420B2018B8D9C8D0995770C480C591CEFEFFC
S1131430AE1ABE0AC2CF3C813C0D3C8363949ACF62
S1131440AB8DBC8DED91FC9111970688F789E02D49
S1131450CD016C960FB6F894DEBF0FBECDBFDF9101
S1131460CF911F910F91FF90EF90DF90CF90BF909D
S1131470AF909F908F907F906F905F904F903F9030
S11314802F9009946C960FB6F894DEBF0FBECDBFB3
S1131490DF91CF911F910F91FF90EF90DF90CF904C
S11314A0BF90AF909F908F907F906F905F904F9080
S11314B03F902F900895AF92BF92CF92EF92FF92F8
S11314C00F931F93CF93DF93EC01262F888D998D73
S11314D0009709F040C06A3059F41D861C862C8997
S11314E08E859F8538E0239F800D911D112441C076
S11314F06D3009F4AAC08E898823C1F03C898C859B
S11315009D8546E0349F800D911D112448855985A1
S1131510481759075CF41D861C868E859F8548E014
S1131520349F800D911D11249F878E87EA88FB8844
S1131530088919894E855F856C857D85CC88CE01A7
S11315400E9445082C898C859D8536E0239F800D5B
S1131550911D112442C06A3079F41D861C862C89A1
S1131560FC013696E4918E859F852E9F800D911DFA
S113157011249F878E8769C06D3009F466C0FC0111
S113158034963491631708F460C03196E491E617F9
S113159008F45BC0FC013296A590B490462F50E04D
S11315A0431B510937E0349FB001359F700D11245E
S11315B0A60EB71EF501329634913196E491332389
S11315C011F0E1110DC0F5013496E4912C898C855C
S11315D09D85E29F800D911D11249D878C8735C0C8
S11315E0F501359644915E89552311F16C89E32FF9
S11315F0F0E0E40FF11D47FDFA956E9FD0016F9F57
S1131600B00D11244C855D854A0F5B1FE885F98573
S1131610E417F5076CF41D861C86FC013696E491EC
S11316208E859F856E9F800D911D11249F878E87C7
S1131630EA88FB88088919894E855F856C857D85D4
S1131640CC88CE010E944508BECF81E090E0DF91B6
S1131650CF911F910F91FF90EF90CF90BF90AF90DB
S11316600895FC017587648757874687089561113B
S113167001C061E0FC01648B0895FC01738B628BF3
S1131680718B608B0895FC0185890895FC01808528
S113169091850895FC018285938508950F931F9386
S11316A0CF93DF93DC01FB0155968C9155978230E3
S11316B089F0833021F1813009F0E6C014968D91D0
S11316C09C911597BC01641B750BAB0141505109EA
S11316D0BF011DC014966D917C911597CB018E1B93
S11316E09F0BFC0116968D919C911797BC01641B6E
S11316F0750BAB0141505109E21BF30BC5C01696A3
S11317006D917C9117976E1B7F0B621B730B57FDBA
S11317101AC114968D919C911597481759070CF08E
S113172012C177FF04C0260F371F60E070E01696E1
S11317308D919C911797FB01E20FF31F8E179F0762
S11317401CF49C01261B370B121613060CF0FBC06D
S1131750A22F862F86958695869590E8899F400DC1
S1131760511D1124FA01EA5EFE4F6770A9F198E059
S1131770961B492F50E0EA01C25FDE4F888129178A
S113178090F4421B51092FEF30E002C035952795A4
S11317904A95E2F782230130110541F068F00230E6
S11317A0110589F0D0C00130110519F42081822B74
S11317B00CC00130110520F480952081822305C0DE
S11317C00230110531F4208182278083A91708F49F
S11317D0BAC0A91BE058FF4FA83048F102301105E8
S11317E059F4EF018A2F988190959883C058DF4F60
S11317F088508830C0F732C081E00130110509F00B
S113180080E08195EF019A2F8883C058DF4F98506C
S11318109830D0F788EF8A0F86958695869560E88C
S1131820869FE00DF11D1124E058FF4FA770AA23F5
S113183009F489C0B0E0AA5FBE4F8C910130110554
S113184029F038F002301105E1F07DC09081892B38
S113185003C0809590818923808375C088EF8A0FA7
S113186086958695869570E8879FE00DF11D112475
S1131870E058FF4FA77009F466C0B0E0AA5FBE4FFE
S11318808C9190818927E8CF57FD5DC016968D9184
S11318909C911797481759070CF055C0F7FF04C0DF
S11318A02E0F3F1FE0E0F0E014968D919C91159768
S11318B0BF01620F731F861797071CF49C012E1B30
S11318C03F0B121613060CF03EC0CA0157FD0796D3
S11318D063E0959587956A95E1F79695982F882703
S11318E097958795E80FF91FEA5EFE4F47705527D5
S11318F081E090E001C0880F4A95EAF7482F013053
S1131900110539F078F002301105E9F42E0F3F1F6C
S113191013C02E0F3F1FE217F307A9F08081842B19
S11319208193F9CF80952E0F3F1FE217F30759F0EB
S1131930908198239193F9CFE217F30721F08081E6
S113194084278193F9CFDF91CF911F910F9108954F
S11319500F931F93CF93DF93DC0155968C9155978A
S1131960823071F0833009F1813009F08CC0149613
S1131970ED91FC911597E41BF50BE21BF30B20C0D2
S11319801496ED91FC911597CF01861B970BBC0122
S1131990615071091696ED91FC911797CF01841B44
S11319A0950BAC01421B530B6EC01696ED91FC9146
S11319B01797CF01861B970BBC0161507109FA017F
S11319C077FD1BC116968D919C911797681779071F
S11319D00CF013C1F7FF04C02E0F3F1FE0E0F0E04E
S11319E014968D919C911597AF01420F531F841744
S11319F095071CF49C012E1B3F0B121613060CF0CA
S1131A00FCC0CB0177FD079643E0959587954A95F1
S1131A10E1F79695982F882797958795E80FF91FF2
S1131A20EA5EFE4F6770772781E090E001C0880F7F
S1131A306A95EAF7482F0130110541F088F0023029
S1131A40110509F0DAC02E0F3F1F15C02E0F3F1FDE
S1131A50E217F30709F4D1C08081842B8193F8CF76
S1131A6080952E0F3F1FE217F30709F4C6C090813B
S1131A7098239193F8CFE217F30709F4BEC080814D
S1131A8084278193F8CF77FDB8C014968D919C91EB
S1131A901597681779070CF0B0C057FF04C0240FDE
S1131AA0351F40E050E016968D919C911797FA01EE
S1131AB0E20FF31F8E179F071CF49C01241B350BA8
S1131AC0121613060CF099C0A22F842F86958695C2
S1131AD0869590E8899F600D711D1124FB01EA5ED3
S1131AE0FE4F4770A9F198E0941B492F50E0EA019A
S1131AF0C25FDE4F8881291790F4421B51092FEFF2
S1131B0030E002C0359527954A95E2F782230130EB
S1131B10110541F068F00230110589F06EC0013002
S1131B20110519F42081822B0CC00130110520F419
S1131B3080952081822305C00230110531F4208173
S1131B4082278083A91708F458C0A91BE058FF4FC7
S1131B50A83048F10230110559F4EF018A2F988119
S1131B6090959883C058DF4F88508830C0F730C0B4
S1131B7081E00130110509F080E08195EF019A2F91
S1131B808883C058DF4F98509830D0F788EF8A0F79
S1131B9086958695869590E8899FE00DF11D112420
S1131BA0E058FF4FA770AA2341F1B0E0AA5FBE4FEF
S1131BB08C910130110529F038F002301105D1F073
S1131BC01CC09081892B18C080959081892314C0F2
S1131BD088EF8A0F86958695869590E8899FE00D13
S1131BE0F11D1124E058FF4FA77039F0B0E0AA5F4F
S1131BF0BE4F8C91908189278083DF91CF911F9173
S1131C000F910895CF92DF92EF92FF920F931F935B
S1131C10CF93DF937C018B01EA01690177FDA0C0BA
S1131C200E94460B081719070CF09AC0D7FD98C0FC
S1131C30C7010E944A0BC817D9070CF091C0C7010D
S1131C400E94430B823009F07FC0F70164817581E3
S1131C50CB01801B910B8C010150110946815781E6
S1131C60FA01EC1BFD0BEF0121970BC0813049F405
S1131C70F701848195818C1B9D0BE8018C01015037
S1131C801109F1E0CF16D10431F010F182E0C81649
S1131C90D104E1F165C0FE01D7FD379643E0F59527
S1131CA0E7954A95E1F7F695FE2FEE27F795E79528
S1131CB00E0F1F1FF801EA5EFE4FC770DD2781E09B
S1131CC090E001C0880FCA95EAF79081892B3AC049
S1131CD0FE01D7FD379623E0F595E7952A95E1F7C0
S1131CE0F695FE2FEE27F795E7950E0F1F1FF801C7
S1131CF0EA5EFE4FC770DD2781E090E001C0880FE7
S1131D00CA95EAF78095908189231CC0FE01D7FD0E
S1131D10379683E0F595E7958A95E1F7F695FE2FDA
S1131D20EE27F795E7950E0F1F1FF801EA5EFE4FA9
S1131D30C770DD2781E090E001C0880FCA95EAF7FB
S1131D409081892780830CC0833009F08FCFF701FD
S1131D5086819781801B910B8E01EC01219791CF95
S1131D60DF91CF911F910F91FF90EF90DF90CF9073
S1131D7008951F93CF93DF93EC01162F40E450E0B6
S1131D8060E870E00E94240882E895E099838883E3
S1131D908FEF8C8F88A38E8F8D8F1F8FDF91CF91C4
S1131DA01F91089580E094E0E6E1F1E0DF019C01F9
S1131DB01D9221503040E1F70895FC0181A1882350
S1131DC039F06EBD00000DB407FEFDCF8EB5089549
S1131DD028E030E090E8A4A1B5A14C9183A58095BA
S1131DE084238C93A2A1B3A182A5492F462319F081
S1131DF04C91842B03C04C91809584238C93A4A193
S1131E00B5A14C9183A5842B8C93969521503109CF
S1131E1011F708951F93CF93DF93EC01162F8C8D48
S1131E208F3F09F1EEA1FFA190818CA5892B8083BE
S1131E30E8A5F9A590818DA5809589238083EEA1DD
S1131E40FFA190818CA5809589238083CE010E9477
S1131E50DD0EEEA1FFA190818CA5892B8083DF91FB
S1131E60CF911F9108958A8D682F880F770B84EC8A
S1131E7096E00E94C01360E084EC96E00E946D132B
S1131E80612F84EC96E00E946D1384EC96E0DF9160
S1131E90CF911F910C94D5130F931F93CF93DF937E
S1131EA0EC01162F022F6B8F4A8F8C8D8F3F09F414
S1131EB08CC061E08E8D0E94971861E088A10E9419
S1131EC0971888A1082E000C990BFC01E057FA4FD3
S1131ED0E491F0E0EE0FFF1FEC55FA4F2591349199
S1131EE03FA32EA3FC01E458FA4FE491ECA78E8D96
S1131EF0082E000C990BFC01E057FA4FE491F0E036
S1131F00EE0FFF1FEC55FA4F2591349139A728A7FE
S1131F10FC01E458FA4FE491EDA789A1811134C082
S1131F2061E08C8D0E94971861E08D8D0E94971856
S1131F308D8D082E000C990BFC01E057FA4FE491AB
S1131F40F0E0EE0FFF1FEC55FA4F259134913DA3BD
S1131F502CA3FC01E458FA4FE491EBA78C8D082ED6
S1131F60000C990BFC01E057FA4FE491F0E0EE0FFE
S1131F70FF1FEC55FA4F259134913BA32AA3FC0192
S1131F80E458FA4FE491EAA789A1882311F10E9449
S1131F90021180915406882399F02FB7F894809108
S1131FA05406813059F48DB3809352069DB38091C9
S1131FB05306809589238DBB2FBF02C02093520600
S1131FC080E58CBD81E08DBD04C084EC96E00E9468
S1131FD0AC130023F1F08F8D87FD1BC061E00E94DC
S1131FE0971861E08F8D0E94D31861E070E080E063
S1131FF090E00E94F71760E08F8D0E94D3186AE08A
S113200070E080E090E00E94F71761E08F8D0E94FD
S1132010D3186EEACE010E940A0F65EDCE010E942C
S11320200A0F60E8CE010E940A0F68EACE010E94FE
S11320300A0F6FE3CE010E940A0F63EDCE010E94E6
S11320400A0F60E0CE010E940A0F60E4CE010E94F4
S11320500A0F6DE8CE010E940A0F113011F460E1FD
S113206001C064E1CE010E940A0F60E2CE010E9429
S11320700A0F60E0CE010E940A0F61EACE010E94BD
S11320800A0F68ECCE010E940A0F6AEDCE010E948D
S11320900A0F62E1CE010E940A0F61E8CE010E949C
S11320A00A0F113011F46FE901C06FECCE010E94E8
S11320B00A0F69EDCE010E940A0F113011F462E299
S11320C001C061EFCE010E940A0F6BEDCE010E94A8
S11320D00A0F60E4CE010E940A0F64EACE010E9456
S11320E00A0F66EACE010E940A0F6EE2CE010E9438
S11320F00A0F6FEACE01DF91CF911F910F910C94DB
S11321000A0FDF92EF92FF920F931F93CF93DF9307
S1132110EC0161E20E940A0F60E0CE010E940A0F06
S11321206FE7CE010E940A0F62E2CE010E940A0FFD
S113213060E0CE010E940A0F67E0CE010E940A0F00
S11321408C8D8F3F31F1EEA1FFA190818CA5892B5D
S11321508083E8A5F9A590818DA5892B8083EEA1C4
S1132160FFA190818CA580958923808306E111E0ED
S1132170F80161918F01CE010E94DD0EF5E0063178
S11321801F07B1F7EEA1FFA190818CA5892B808355
S113219031C0D090B8008CE08093B80006E111E023
S11321A06A8D062E000C770B84EC96E00E94C01317
S11321B060E484EC96E00E946D13E12CF12CF801AC
S11321C0EE0DFF1D608184EC96E00E946D138FEF8D
S11321D0E81AF80AE0E1EE16F10489F784EC96E0D7
S11321E00E94D513005F1F4FF5E006311F07C1F6AB
S11321F0D092B800DF91CF911F910F91FF90EF9093
S1132200DF900895CF93CFB7F8948091550681114C
S113221027C0EAE9F5E08491E6E8F5E09491E82F37
S1132220F0E0EE0FFF1FE255FA4FA591B491EC9147
S1132230E92321F461E08AE00E94D31861E08AE096
S11322400E9497188CB580618CBD8CB580648CBD60
S113225061E08DE00E94971861E08BE00E9497187E
S1132260809155068F5F80935506CFBFCF91089517
S11322701092C30681E08093C1061092C00661E00B
S113228082E10E94D31861E083E10E94D318E9EB54
S1132290F0E080818E7F808380818D7F808388E4DD
S11322A08093B80085E48093BC0008950F93413275
S11322B008F04AC09091C3069111FCCF32E03093EC
S11322C0C3060093C1063FEF3093560610929B0657
S11322D040939A06FB016CE976E0DB013A2F361B4A
S11322E0341718F431913D93F9CF1092C20630910E
S11322F0C206880F832B8093C2068091C00681306A
S113230061F41092C0068091C2068093BB00809154
S1132310BC0083FDF8CF85EC01C085EE8093BC0042
S1132320222321F08091C3068230D1F38091560696
S11323308F3F79F080915606803241F080915606A5
S1132340803331F094E005C091E003C092E001C015
S113235093E0892F0F91089540917806262F30E05D
S1132360240F311D21323105DCF42091C3062430C1
S1132370C9F4FC0180E090E0861758F430917806A7
S11323802191DC01A658B94FA30FB11D2C930196DE
S1132390F3CF80917806680F6093780680E0089503
S11323A081E0089582E0089585ED8093BC008091DA
S11323B0BC0084FDFCCF1092C306089585EC809385
S11323C0BC001092C30608951F920F920FB60F928D
S11323D011242F933F934F935F936F937F938F9326
S11323E09F93AF93BF93EF93FF938091B900887F3E
S11323F0803609F49EC078F5883209F45DC090F403
S1132400803109F456C038F4882309F4F5C08830C3
S113241009F44FC0F5C0883109F44EC0803209F484
S11324205FC0EEC0803409F46AC058F4803309F404
S113243057C0883309F0E4C0809356060E94DE1129
S1132440DFC0803509F44FC0883509F45DC0883495
S113245009F0D6C0D3C0883909F4C4C0A8F48837B9
S113246009F467C038F4883609F463C0803709F486
S113247060C0C6C0883809F4B5C0803909F45FC0AB
S1132480803809F0BDC05BC0803B09F483C038F4D8
S1132490803A09F466C0883A09F47CC0B1C0803C33
S11324A009F4A4C0883C09F4A1C0883B09F487C09E
S11324B0A7C08091C20610C090919B0680919A0695
S11324C0981770F5E0919B0681E08E0F80939B0630
S11324D0F0E0E456F94F80818093BB0085EC83C023
S11324E0809356068BC0E0919B0681E08E0F80930B
S11324F09B068091BB00F0E0E456F94F80839091F5
S11325009B0680919A066BC0E0919B0681E08E0F3A
S113251080939B068091BB00F0E0E456F94F8083E2
S11325208091C10681116AC081E08093C00684EA6B
S11325305EC083E08093C30610925706CFCF80918C
S11325405706803208F04EC0E091570681E08E0FA6
S1132550809357068091BB00F0E0E85AF94F8083DE
S1132560BDCF0E94DE1180915706803230F4E09195
S11325705706F0E0E85AF94F10826091570670E070
S1132580E091BC06F091BD0688E596E009951092AD
S1132590570636C084E08093C306109279061092E1
S11325A07806E091BE06F091BF0609958091780601
S11325B0811105C081E08093780610927A06E0913B
S11325C0790681E08E0F80937906F0E0E658F94FA2
S11325D080818093BB00909179068091780698174A
S11325E008F47CCF85E88093BC000AC085EC809316
S11325F0BC001092C30604C0109256060E94D41167
S1132600FF91EF91BF91AF919F918F917F916F91C6
S11326105F914F913F912F910F900FBE0F901F909C
S113262018958091F40690E02091F506821B91099B
S113263008959091F5068091F406981750F4E92FC7
S1132640F0E0EA50F94F208130E09F5F9093F50667
S113265002C02FEF3FEFC9010895E091F506809184
S1132660F406E81730F4F0E0EA50F94F808190E086
S113267008958FEF9FEF08950895CF92DF92EF9220
S1132680FF920F931F93CF93DF937C01262F972FF5
S11326908A018091D006882391F0C62FD72F6E012E
S11326A0C40ED51ECC15DD0571F06991D701ED91ED
S11326B0FC910190F081E02DC7010995F3CF642FBF
S11326C0822F0E94AC11C801DF91CF911F910F910D
S11326D0FF90EF90DF90CF900895CF93DF931F92F8
S11326E0CDB7DEB769832091D0062223D1F02091A3
S11326F0D106203240F021E030E0FC013383228314
S113270080E090E015C08091D206E82FF0E0ED5211
S1132710F94F998190838F5F8093D2068093D1067D
S113272005C061E0CE0101960E94AC1181E090E009
S11327300F90DF91CF910895FC011382128288EEED
S113274093E0A0E0B0E084839583A683B7838EEA08
S113275095E09183808308951092F5061092F40613
S11327601092D2061092D1060C94381181E0809315
S1132770D0066093F3061092D2061092D106089503
S11327800C94B6130F93062F21E04091D10663ED0C
S113279076E08091F3060E9456111092D2061092B0
S11327A0D1061092D0060F91089561E00C94C213E3
S11327B084EC96E00C949C1308954F925F926F9270
S11327C07F92AF92BF92CF92DF92EF92FF920F93DC
S11327D01F93CF93DF93CDB7DEB72A970FB6F89444
S11327E0DEBF0FBECDBF7C015B018AE0E8E1F5E00E
S11327F0DE01119601900D928A95E1F7CE010196C2
S11328006C0100E010E030E8432E3EE3532E612CCF
S1132810712CF601619171916F01CB01770FAA0BB5
S1132820BB0B77276627A30192010E943F1BA216C8
S1132830B3062CF00F5F1F4F0530110551F7F70158
S113284031872087000F111FE1E0F0E0EC0FFD1F3E
S1132850E00FF11F808191812A960FB6F894DEBFB4
S11328600FBECDBFDF91CF911F910F91FF90EF90DD
S1132870DF90CF90BF90AF907F906F905F904F901C
S11328800895CF93DF93EC016FED75E00E94721908
S113289081E090E09F838E83198618861B861A86B2
S11328A08FB780688FBFDF91CF910895EF92FF9229
S11328B00F931F93CF93DF93EC017B018A010E9456
S11328C0C419B801CE010E94DD139F838E83C70112
S11328D00E940A1B6EE475E0C7010E94701A8823E7
S11328E009F44DC0109280001092810088E080931A
S11328F081008E819F81019729F4809181008160FC
S1132900809381008E819F81089729F480918100B2
S11329108260809381008E819F818034910529F4A7
S1132920809181008360809381008E819F818115D5
S1132930914029F4809181008460809381008E818C
S11329409F818115944029F4809181008560809352
S1132950810020E83EE3D8010E946D1B2E813F8157
S1132960032E000C440B550B0E943F1B3B872A8708
S1132970309389002093880082E080936F00DF9178
S1132980CF911F910F91FF90EF900895EF92FF92D6
S11329900F931F93CF93DF93CDB7DEB72E970FB668
S11329A0F894DEBF0FBECDBF8C017B016FED75E0E7
S11329B04D875E870E94721981E090E0F801978349
S11329C086831186108613861286B701CE0101967E
S11329D00E94DB194D855E85BE016F5F7F4FC80184
S11329E00E945614CE0101960E940419CE0101964C
S11329F00E944114CE0101960E9404192E960FB62E
S1132A00F894DEBF0FBECDBFDF91CF911F910F9120
S1132A10FF90EF900895709317056093160508953D
S1132A200C9404191F920F920FB60F9211242F9336
S1132A303F934F935F936F937F938F939F93AF9342
S1132A40BF93EF93FF93E0911605F0911705099555
S1132A50FF91EF91BF91AF919F918F917F916F9172
S1132A605F914F913F912F910F900FBE0F901F9048
S1132A701895CF93DF93EC016FED75E00E94721906
S1132A8068EC75E0CE01DF91CF910C94701A0C9430
S1132A9004190E94711DFC01918D228D892F90E0F3
S1132AA0805C9F4F821B91098F7399270895FC01C5
S1132AB0918D828D981731F0828DE80FF11D858DEF
S1132AC090E008958FEF9FEF0895FC01918D828D22
S1132AD0981761F0828DDF01A80FB11D5D968C916E
S1132AE0928D9F5F9F73928F90E008958FEF9FEF79
S1132AF00895FC01538D448D252F30E0842F90E000
S1132B00821B930B541710F0CF96089501970895E4
S1132B108DED96E1892B49F08EE095E0892B29F023
S1132B200E94DD1681110C940E050895FC01848D1C
S1132B30DF01A80FB11DA35ABF4F2C91848D90E0E3
S1132B4001968F739927848FA689B7892C93A089BE
S1132B50B1898C9180648C93938D848D981306C075
S1132B600288F389E02D80818F7D80830895CF933F
S1132B70DF93EC01888D8823C9F0EA89FB89808181
S1132B8085FD05C0A889B9898C9186FD0FC00FB653
S1132B9007FCF5CF808185FFF2CFA889B9898C9194
S1132BA085FFEDCFCE010E949615E7CFDF91CF913F
S1132BB00895EF92FF920F931F93CF93DF93EC014D
S1132BC081E0888F9B8D8C8D981305C0E889F989E5
S1132BD0808185FD24C0F62E0B8D10E00F5F1F4F02
S1132BE00F731127E02E8C8DE8120CC00FB607FC72
S1132BF0FACFE889F989808185FFF5CFCE010E945B
S1132C009615F1CF8B8DFE01E80FF11DE35AFF4FAE
S1132C10F0820B8FEA89FB898081806207C0EE898C
S1132C20FF896083E889F98980818064808381E0F9
S1132C3090E0DF91CF911F910F91FF90EF90089555
S1132C40CF92DF92EF92FF921F93CF93DF93EC0129
S1132C506A017B01122FE889F98982E0808341159A
S1132C60514E61057105B1F060E079E08DE390E0CB
S1132C70A70196010E941D1BDA01C9010197A10950
S1132C80B109B695A79597958795AC01411580E153
S1132C905807A8F0E889F989108260E874E88EE1A1
S1132CA090E0A70196010E941D1BBA01A9014150A1
S1132CB05109610971097695679557954795EC8592
S1132CC0FD855083EE85FF854083188EEC89FD8950
S1132CD01083EA89FB89808180618083EA89FB898A
S1132CE0808188608083EA89FB8980818068808311
S1132CF0EA89FB8980818F7D8083DF91CF911F9149
S1132D00FF90EF90DF90CF9008951F920F920FB62F
S1132D100F9211242F938F939F93EF93FF93E0913E
S1132D202607F09127078081E0912C07F0912D0769
S1132D3082FD12C0908180912F078F5F8F73209145
S1132D403007821751F0E0912F07F0E0EA5EF84F68
S1132D50958F80932F0701C08081FF91EF919F9100
S1132D608F912F910F900FBE0F901F9018951F9267
S1132D700F920FB60F9211242F933F934F935F93AB
S1132D806F937F938F939F93AF93BF93EF93FF932F
S1132D9086E197E00E949615FF91EF91BF91AF9164
S1132DA09F918F917F916F915F914F913F912F915F
S1132DB00F900FBE0F901F90189586E197E00E9428
S1132DC04B1521E0892B09F420E0822F0895E6E1D8
S1132DD0F7E01382128288EE93E0A0E0B0E08483EF
S1132DE09583A683B7838FEC95E09183808385ECEC
S1132DF090E09587848784EC90E09787868780ECC1
S1132E0090E0918B808B81EC90E0938B828B82ECB1
S1132E1090E0958B848B86EC90E0978B868B118E5B
S1132E20128E138E148E089508950E9433180E94F2
S1132E3014170E94DA04C8E8D5E10E940D05209712
S1132E40E1F30E948815F9CFCF92DF92EF92FF92BF
S1132E500F931F93CF93DF936C017A018B01C0E032
S1132E60D0E0CE15DF0589F0D8016D918D01D60132
S1132E70ED91FC910190F081E02DC6010995892B1B
S1132E8011F47E0102C02196ECCFC701DF91CF91EE
S1132E901F910F91FF90EF90DF90CF9008956115EF
S1132EA0710579F0FB0101900020E9F73197AF013A
S1132EB0461B570BDC01ED91FC910280F381E02D60
S1132EC0099480E090E00895DC01ED91FC91DB0130
S1132ED014964D915C9115976D917C910280F381CC
S1132EE0E02D09946DED75E00C944F170F931F932B
S1132EF0CF93DF93EC010E9464178C01CE010E94F2
S1132F007217800F911FDF91CF911F910F91089538
S1132F101F920F920FB60F9211242F933F938F930A
S1132F209F93AF93BF938091B4079091B507A091FD
S1132F30B607B091B7073091B30723E0230F2D37BD
S1132F4020F40196A11DB11D05C026E8230F0296A9
S1132F50A11DB11D2093B3078093B4079093B507C7
S1132F60A093B607B093B7078091B8079091B907BB
S1132F70A091BA07B091BB070196A11DB11D809322
S1132F80B8079093B907A093BA07B093BB07BF9152
S1132F90AF919F918F913F912F910F900FBE0F9002
S1132FA01F9018953FB7F8948091B8079091B9078E
S1132FB0A091BA07B091BB0726B5A89B05C02F3FC7
S1132FC019F00196A11DB11D3FBFBA2FA92F982F4B
S1132FD08827820F911DA11DB11DBC01CD0142E0C6
S1132FE0660F771F881F991F4A95D1F708958F920E
S1132FF09F92AF92BF92CF92DF92EF92FF926B01BA
S11330007C010E94D2174B015C01C114D104E1047C
S1133010F10401F10E941C1B0E94D217DC01CB01B8
S113302088199909AA09BB09883E9340A105B105ED
S113303060F321E0C21AD108E108F10888EE880E95
S113304083E0981EA11CB11CC114D104E104F10455
S113305019F7DBCFFF90EF90DF90CF90BF90AF9048
S11330609F908F900895789484B5826084BD84B5D0
S1133070816084BD85B5826085BD85B5816085BD6F
S1133080EEE6F0E0808181608083E1E8F0E0108288
S1133090808182608083808181608083E0E8F0E0C9
S11330A0808181608083E1EBF0E0808184608083B3
S11330B0E0EBF0E0808181608083EAE7F0E08081EA
S11330C0846080838081826080838081816080834A
S11330D08081806880831092C1000895833081F0DC
S11330E028F4813099F08230A1F008958730A9F056
S11330F08830B9F08430D1F4809180008F7D03C092
S1133100809180008F7780938000089584B58F77B5
S113311002C084B58F7D84BD08958091B0008F77FF
S113312003C08091B0008F7D8093B0000895CF9349
S1133130DF9390E0FC01E458FA4F2491FC01E0573E
S1133140FA4F8491882361F190E0880F991FFC0164
S1133150E255FA4FC591D491FC01EC55FA4FA59173
S1133160B491611109C09FB7F89488812095822396
S11331708883EC912E230BC0623061F49FB7F894DE
S11331803881822F809583238883EC912E2B2C9376
S11331909FBF06C08FB7F894E8812E2B28838FBF7A
S11331A0DF91CF9108951F93CF93DF93282F30E0C1
S11331B0F901E859FA4F8491F901E458FA4FD4918E
S11331C0F901E057FA4FC491CC23C9F0162F8111AD
S11331D00E946E18EC2FF0E0EE0FFF1FEC55FA4F33
S11331E0A591B4918FB7F894111105C09C91ED2F5E
S11331F0E095E92302C0EC91ED2BEC938FBFDF91B6
S1133200CF911F9108950895FC01808191810C94C0
S11332100F1CCF93DF93EC0188819981009711F003
S11332200E940F1C198218821D821C821B821A8222
S1133230DF91CF9108950F931F93CF93DF93EC0108
S11332408B016F5F7F4F888199810E94A71C009733
S113325031F0998388831B830A8381E001C080E075
S1133260DF91CF911F910F910895CF93DF93EC01DC
S113327088819981892B29F08A819B8186179707F8
S113328060F4CE010E941B19882341F08C819D813A
S1133290892B19F4E881F981108281E0DF91CF91C3
S11332A00895EF92FF920F931F93CF93DF93EC0156
S11332B07B018A01BA010E943519811104C0CE0133
S11332C00E94091907C01D830C83B7018881998165
S11332D00E94901DCE01DF91CF911F910F91FF901D
S11332E0EF900895FC0111821082138212821582DC
S11332F014826115710551F0FB0101900020E9F77A
S11333003197AF01461B570B0C94511908950F9335
S11333101F93CF93DF938C01EB01FC01808191819A
S11333200097D1F0688179816115710599F023E0E6
S113333039E1232B79F0428153812C813D8142175D
S1133340530740F00E94901D8C819D81F801958364
S1133350848313C00E940F1C88819981F801918392
S113336080838A819B81938382838C819D819583D1
S11333708483198218821B821A821D821C82DF9127
S1133380CF911F910F910895CF93DF93EC01FB012F
S11333908617970761F0608171816115710529F0C5
S11333A0448155810E94511902C00E940919CE011D
S11333B0DF91CF910895FC01118210821382128251
S11333C0158214820C94C419CF93DF93EC018617F1
S11333D0970711F00E948719CE01DF91CF910895CC
S11333E0CF93DF93EC016115710559F0FB01019056
S11333F00020E9F73197AF01461B570B0E94511982
S113340002C00E940919CE01DF91CF910895EF9275
S1133410FF920F931F93CF93DF93FC012481358197
S11334206115710511F480E019C041155105A9F029
S11334307B01EC018A01020F131FB8010E943519A8
S1133440882389F3288139818C819D81B701820F7A
S1133450931F0E94901D1D830C8381E0DF91CF9107
S11334601F910F91FF90EF900895FB0144815581C6
S1133470608171810C94071ACF93DF9300D0CDB78C
S1133480DEB769831A8241E050E0BE016F5F7F4F6F
S11334900E94071A0F900F90DF91CF910895CF9358
S11334A0DF93EC01FB0144815581608171810E94AD
S11334B0071A811103C0CE010E940919CE01DF91C0
S11334C0CF910895CF93DF93EC010E943C1A8111B0
S11334D003C0CE010E940919CE01DF91CF91089556
S11334E0FC0124813581232B31F421E06115710520
S11334F0A1F0FB0108C0FC01808191816115710577
S113350031F421E0FC018081882339F005C00E9458
S1133510871D21E0892B09F020E0822F0895DB012B
S11335201496ED91FC911597DC0114962D913C9124
S113353015972E1B3F0B24173507A0F02D913C91B6
S11335402115310579F0DB016D917C9161157105CF
S113355049F0CA01AF01820F931F0E94971D21E019
S1133560892B09F020E0822F0895FC0144815581C4
S1133570FB01248135814217530720F040E050E0DD
S11335800C948F1A80E00895BF92CF92DF92EF924D
S1133590FF920F931F93CF93DF937C016B018A01FA
S11335A0E9012417350720F4812F8901C42FD82F6E
S11335B06FED75E0C7010E947219D60114968D91C2
S11335C09C91159708171907D0F48C179D0708F4D8
S11335D0EC01D601ED91FC911197EC0FFD1FB08029
S11335E010824D915C91BA01600F711FC7010E9456
S11335F0F019D601ED91FC91EC0FFD1FB082C701CB
S1133600DF91CF911F910F91FF90EF90DF90CF90BA
S1133610BF900895CF93DF93FC01C081D18120979F
S113362041F08881882329F090E00E94761D8993D7
S1133630F8CFDF91CF9108950895A1E21A2EAA1B25
S1133640BB1BFD010DC0AA1FBB1FEE1FFF1FA2174E
S1133650B307E407F50720F0A21BB30BE40BF50B4B
S1133660661F771F881F991F1A9469F760957095D4
S1133670809590959B01AC01BD01CF010895052E65
S113368097FB1EF400940E94561B57FD07D00E941E
S11336901D1B07FC03D04EF40C94561B509540950B
S11336A0309521953F4F4F4F5F4F089590958095EA
S11336B0709561957F4F8F4F9F4F0895A29FB001E2
S11336C0B39FC001A39F700D811D1124911DB29F52
S11336D0700D811D1124911D08950E945E1BB7FF7A
S11336E00895821B930B0895EE0FFF1F0590F4912C
S11336F0E02D0994CF93DF938230910510F482E09A
S113370090E0E091BE07F091BF0720E030E0C0E018
S1133710D0E0309711F14081518148175907C0F02A
S11337204817590761F482819381209719F09B838C
S11337308A832BC09093BF078093BE0726C02115B0
S1133740310519F04217530718F49A01BE01DF013D
S1133750EF010280F381E02DDCCF2115310509F161
S1133760281B390B2430310590F412968D919C91CD
S113377013976115710521F0FB019383828304C0C3
S11337809093BF078093BE07FD01329644C0FD01AC
S1133790E20FF31F81939193225031092D933C93AF
S11337A03AC02091BC073091BD07232B41F42091EE
S11337B00201309103013093BD072093BC0720918F
S11337C00001309101012115310541F42DB73EB7B7
S11337D04091040150910501241B350BE091BC0775
S11337E0F091BD07E217F307A0F42E1B3F0B281737
S11337F0390778F0AC014E5F5F4F2417350748F066
S11338004E0F5F1F5093BD074093BC078193919364
S113381002C0E0E0F0E0CF01DF91CF9108950F9373
S11338201F93CF93DF93009709F48CC0FC01329768
S1133830138212820091BE071091BF070115110572
S113384081F420813181820F931F2091BC07309134
S1133850BD072817390779F5F093BD07E093BC0736
S113386071C0D80140E050E0AE17BF0750F4129683
S11338702D913C911397AD012115310509F1D90121
S1133880F3CF9D01DA013383228360817181860F36
S1133890971F8217930769F4EC0128813981260F59
S11338A0371F2E5F3F4F318320838A819B8193830F
S11338B08283452B29F4F093BF07E093BE0742C0EF
S11338C01396FC93EE931297ED01499159919E0141
S11338D0240F351FE217F30771F480819181840F5F
S11338E0951F029611969C938E93828193811396D1
S11338F09C938E931297E0E0F0E0D80112968D919C
S11339009C911397009719F0F8018C01F6CF8D91D3
S11339109C9198012E5F3F4F820F931F2091BC070B
S11339203091BD072817390769F4309729F41092AC
S1133930BF071092BE0702C0138212821093BD0704
S11339400093BC07DF91CF911F910F910895A0E0E0
S1133950B0E0EDEAFCE10C94A91DEC01009721F420
S1133960CB010E947A1BB8C0FC01E60FF71F9C0133
S113397022503109E217F30708F4ACC0D9010D91C4
S11339801C91119706171707B0F00530110508F4BC
S11339909FC0C80104978617970708F499C002507E
S11339A01109061B170B019311936D937C93CF019F
S11339B00E940F1C8DC05B01A01AB10A4C01800E3D
S11339C0911EA091BE07B091BF0740E050E0E12CEA
S11339D0F12C109709F44AC0A815B905D1F56D90DA
S11339E07C901197630182E0C80ED11CCA14DB04D9
S11339F080F1A3014A195B096A0182E0C80ED11C57
S1133A001296BC9012971396AC91B5E0CB16D104E4
S1133A1040F0B282A38351834083D9016D937C9398
S1133A200AC00E5F1F4FC301800F911FF9019183DC
S1133A308083EB2DFA2FE114F10431F0D7011396B2
S1133A40FC93EE93129744C0F093BF07E093BE0734
S1133A503FC08D919C9111974817590708F4AC0108
S1133A607D0112960D90BC91A02DB3CF8091BC071F
S1133A709091BD0788159905E1F446175707C8F4D6
S1133A808091000190910101009741F48DB79EB798
S1133A904091040150910501841B950BE817F90727
S1133AA0C8F4F093BD07E093BC07F9017183608308
S1133AB00FC0CB010E947A1B7C01009759F0A8012A
S1133AC0BE010E947E1DCE010E940F1CC70104C0CE
S1133AD0CE0102C080E090E0CDB7DEB7EEE00C94FA
S1133AE0C51D81E090E0F8940C94DC1D91110895BB
S1133AF081568A5108F4805285580895FB01DC01EF
S1133B0002C001900D9241505040D8F70895FB0136
S1133B10DC018D91019080190110D9F3990B08955E
S1133B20FB01DC0101900D920020E1F70895FB01F7
S1133B30DC014150504030F08D910190801919F40E
S1133B400020B9F7881B990B08952F923F924F924A
S1133B505F926F927F928F929F92AF92BF92CF9219
S1133B60DF92EF92FF920F931F93CF93DF93CDB722
S1133B70DEB7CA1BDB0B0FB6F894DEBF0FBECDBF9A
S1133B8009942A88398848885F846E847D848C846B
S1133B909B84AA84B984C884DF80EE80FD800C8174
S1133BA01B81AA81B981CE0FD11D0FB6F894DEBF57
S1133BB00FBECDBFED01089512E0CFEDD2E004C0F9
S1133BC0FE010E94741B2196C03ED107C9F7F894E8
S1053BD0FFCF21
S1133BD20000C0072000000103070F1F3F7F008081
S1133BE2C0E0F0F8FCFE000000000000000000004D
S1133BF200000000000000000000000000000000BF
S1133C0200000000000000000000000000000000AE
S1133C12000000000000000000000000000000009E
S1133C22000000000080808000000000000000000E
S1133C32000000000000008080C0C00000000000FE
S1133C42000000000000000000000000000000006E
S1133C52000000000000000000000000000000005E
S1133C62000000000000000000000000000000004E
S1133C720000000000000000000080C0E0F0F8FC3A
S1133C82F8E0000000000000000000000000000056
S1133C92000000808080808000808000000000801E
S1133CA28080808000FFFFFF000000008080808011
S1133CB200008080000080FFFF8080008080008000
S1133CC28080800080800000000000808000008CE2
S1133CD28E84000080F8F8F88000000000000000E4
S1133CE2000000000000F0F0F0F0F0F0F0F0F0F06E
S1133CF2F0F0E0E0C08000E0FCFEFFFFFF7FFFFF8A
S1133D02FFFFFF00000000000000000000000000B0
S1133D1200FEFFC70101010183FFFF00007CFEC713
S1133D220101010183FFFFFF0038FEC78301010186
S1133D3283C7FFFF000001FFFF010100FFFF07012E
S1133D42010100007FFF80000000FFFF7F0000FFF1
S1133D52FFFF000001FFFFFF010000000000000060
S1133D62000000000000030F3F7F7FFFFFFFFFFF03
S1133D72FFFFE7C7C78F8F9FBFFFFFC3C0F0FFFFDF
S1133D82FFFFFFFCFCFCFCFCFCFCFCF8F8F0F0E0A0
S1133D92C000010303030303010303000000000145
S1133DA203030303010103010000000103030303EE
S1133DB201010303000000030300000003030000E9
S1133DC200000000000103030303030100000001DB
S1133DD203010000000303010000000000000000D2
S1133DE200000000000000000080C0E0F0F9FFFFC6
S1133DF2FFFFFF3F1F0F87C7F7FFFF1F1F3DFCF8A1
S1133E02F8F8F87C7DFFFFFFFFFFFFFFFF7F3F0F06
S1133E120700303000000000000000000000000035
S1133E2200000000000000000000FEFEFC00000094
S1133E32000000000000000000000000000000007C
S1133E42000000E0C00000000000000000000000CC
S1133E5230300000000000000000000000000000FC
S1133E6200000000000000C0FEFFFFFFFFFFFFFF95
S1133E72FFFF7F7F3F1F0F071F7FFFFFF8F8FFFF42
S1133E82FFFFFFFEF8E00000000100000000000058
S1133E920000FEFE000000FCFEFC0C06060EFCF810
S1133EA20000F0F81C0E0606060CFFFFFF0000FEE1
S1133EB2FE00000000FCFEFC00183C7E66E6CE8498
S1133EC2000006FFFF0606FCFEFC0C0606060000C8
S1133ED2FEFE0000C0F8FC4E4646464E7C78401872
S1133EE23C76E6CECC80000000000000000000001A
S1133EF20000000000000000000001070F1F1F3F28
S1133F023F3F3F1F0F0300000000000000000000BD
S1133F1200000F0F0000000F0F0F000000000F0F32
S1133F22000003070E0C18180C060F0F0F000001F7
S1133F320F0E0C180C0F070100040E0C180C0F07BF
S1133F420000000F0F00000F0F0F00000000000020
S1133F520F0F00000007070C0C181C0C06060004C7
S1133F620E0C180C0F0700000000000000000000F7
S1133F72000000000000000000000000000000003B
S1133F82000000000000000000000000000000002B
S1133F92000000000000000000000000000000001B
S1133FA2000000000000000000000000000000000B
S1133FB200000000000000000000000000000000FB
S1133FC200000000000000000000000000000000EB
S1133FD200000000000000000000000000000000DB
S1133FE2000000000000DC13010008004000000192
S1133FF20004494E4954494E47005354523A004929
S11340024E464F524D4154494F4E00574B53543A2A
S1134012005859503A004D53473A004F4B0043540D
S11340224300000000005B0A241762056505491578
S113403210061106300618062406660540060F0807
S11340420E0841068606CA061A073807AF0700009B
S113405200005B0A241762056505020E10061106AC
S1134062300618062406660540060F080E08A80C3A
S11340724E0BCA061A073807AF07000000006D137B
S11340823D1362053C13111319132D136E616F7ADC
S1134092690078756B6169004B580000000000D913
S11340A21524177915B7154B15651557150D0A0003
S10F40B26E616E00696E66006F76660039
S9030000FC
